:020000040000fa
:080000000028040000000000cc
:020000040000fa
:04000800682d00005f
:020000040000fa
:04000c00682d00005b
:020000040000fa
:04001000682d000057
:020000040000fa
:04001400682d000053
:020000040000fa
:04001800682d00004f
:020000040000fa
:04001c00682d00004b
:020000040000fa
:04002000682d000047
:020000040000fa
:04002400682d000043
:020000040000fa
:04002800682d00003f
:020000040000fa
:04002c00682d00003b
:020000040000fa
:04003000682d000037
:020000040000fa
:04003400682d000033
:020000040000fa
:04003800682d00002f
:020000040000fa
:04003c00682d00002b
:020000040000fa
:04004000682d000027
:020000040000fa
:04004400682d000023
:020000040000fa
:04004800682d00001f
:020000040000fa
:04004c00682d00001b
:020000040000fa
:04005000682d000017
:020000040000fa
:04005400682d000013
:020000040000fa
:04005800682d00000f
:020000040000fa
:04005c00682d00000b
:020000040000fa
:04006000682d000007
:020000040000fa
:04006400682d000003
:020000040000fa
:04006800682d0000ff
:020000040000fa
:04006c00682d0000fb
:020000040000fa
:04007000682d0000f7
:020000040000fa
:04007400682d0000f3
:020000040000fa
:04007800682d0000ef
:020000040000fa
:04007c00682d0000eb
:020000040000fa
:04008000682d0000e7
:020000040000fa
:04008400682d0000e3
:020000040000fa
:04008800682d0000df
:020000040000fa
:04008c00682d0000db
:020000040000fa
:04009000682d0000d7
:020000040000fa
:04009400682d0000d3
:020000040000fa
:04009800682d0000cf
:020000040000fa
:04009c00682d0000cb
:020000040000fa
:0400a000682d0000c7
:020000040000fa
:0400a400682d0000c3
:020000040000fa
:0400a800682d0000bf
:020000040000fa
:0400ac00682d0000bb
:020000040000fa
:0400b000682d0000b7
:020000040000fa
:0400b400682d0000b3
:020000040000fa
:0400b800682d0000af
:020000040000fa
:0400bc00682d0000ab
:020000040000fa
:0400c000682d0000a7
:020000040000fa
:0400c400682d0000a3
:020000040000fa
:0400c800682d00009f
:020000040000fa
:0400cc00682d00009b
:020000040000fa
:0400d000682d000097
:020000040000fa
:0400d400682d000093
:020000040000fa
:0400d800682d00008f
:020000040000fa
:0400dc00682d00008b
:020000040000fa
:0400e000682d000087
:020000040000fa
:0400e400682d000083
:020000040000fa
:0400e800682d00007f
:020000040000fa
:0400ec00682d00007b
:020000040000fa
:0400f000682d000077
:020000040000fa
:0400f400682d000073
:020000040000fa
:0400f800682d00006f
:020000040000fa
:0400fc00682d00006b
:020000040000fa
:04010000682d000066
:020000040000fa
:04010400682d000062
:020000040000fa
:04010800682d00005e
:020000040000fa
:04010c00682d00005a
:020000040000fa
:04011000682d000056
:020000040000fa
:04011400682d000052
:020000040000fa
:04011800682d00004e
:020000040000fa
:04011c00682d00004a
:020000040000fa
:04012000682d000046
:020000040000fa
:04012400682d000042
:020000040000fa
:04012800682d00003e
:020000040000fa
:04012c00682d00003a
:020000040000fa
:04013000682d000036
:020000040000fa
:04013400682d000032
:020000040000fa
:04013800682d00002e
:020000040000fa
:04013c00682d00002a
:020000040000fa
:04014000682d000026
:020000040000fa
:04014400682d000022
:020000040000fa
:04014800682d00001e
:020000040000fa
:04014c00682d00001a
:020000040000fa
:04015000682d000016
:020000040000fa
:04015400682d000012
:020000040000fa
:04015800682d00000e
:020000040000fa
:04015c00682d00000a
:020000040000fa
:04016000682d000006
:020000040000fa
:04016400682d000002
:020000040000fa
:04016800682d0000fe
:020000040000fa
:04016c00682d0000fa
:020000040000fa
:04017000682d0000f6
:020000040000fa
:04017400682d0000f2
:020000040000fa
:04017800682d0000ee
:020000040000fa
:04017c00682d0000ea
:020000040000fa
:04018000682d0000e6
:020000040000fa
:04018400682d0000e2
:020000040000fa
:04018800682d0000de
:020000040000fa
:04018c00682d0000da
:020000040000fa
:04019000682d0000d6
:020000040000fa
:04019400682d0000d2
:020000040000fa
:04019800682d0000ce
:020000040000fa
:04019c00682d0000ca
:020000040000fa
:0401a000682d0000c6
:020000040000fa
:0401a400682d0000c2
:020000040000fa
:0401a800682d0000be
:020000040000fa
:0401ac00682d0000ba
:020000040000fa
:0401b000682d0000b6
:020000040000fa
:0401b400682d0000b2
:020000040000fa
:0401b800682d0000ae
:020000040000fa
:0401bc00682d0000aa
:020000040000fa
:0401c000682d0000a6
:020000040000fa
:0401c400682d0000a2
:020000040000fa
:0401c800682d00009e
:020000040000fa
:0401cc00682d00009a
:020000040000fa
:0401d000682d000096
:020000040000fa
:0401d400682d000092
:020000040000fa
:0401d800682d00008e
:020000040000fa
:0401dc00682d00008a
:020000040000fa
:0401e000682d000086
:020000040000fa
:0401e400682d000082
:020000040000fa
:0401e800682d00007e
:020000040000fa
:0401ec00682d00007a
:020000040000fa
:0401f000682d000076
:020000040000fa
:0401f400682d000072
:020000040000fa
:0401f800682d00006e
:020000040000fa
:0401fc00682d00006a
:020000040000fa
:04400800682d00001f
:020000040000fa
:04400c00682d00001b
:020000040000fa
:04401000682d000017
:020000040000fa
:04401400682d000013
:020000040000fa
:04401800682d00000f
:020000040000fa
:04401c00682d00000b
:020000040000fa
:04402000682d000007
:020000040000fa
:04402400682d000003
:020000040000fa
:04402800682d0000ff
:020000040000fa
:04402c00682d0000fb
:020000040000fa
:04403000682d0000f7
:020000040000fa
:04403400042900005b
:020000040000fa
:04403800682d0000ef
:020000040000fa
:04403c00682d0000eb
:020000040000fa
:04404000682d0000e7
:020000040000fa
:04404400142900003b
:020000040000fa
:044048002429000027
:020000040000fa
:04404c008e290000b9
:020000040000fa
:04405000682d0000d7
:020000040000fa
:04405400682d0000d3
:020000040000fa
:04405800682d0000cf
:020000040000fa
:04405c00682d0000cb
:020000040000fa
:04406000aa29000089
:020000040000fa
:04406400682d0000c3
:020000040000fa
:04406800ee2c00003a
:020000040000fa
:04406c00682d0000bb
:020000040000fa
:04407000682d0000b7
:020000040000fa
:04407400682d0000b3
:020000040000fa
:0440780034290000e7
:020000040000fa
:04407c00682d0000ab
:020000040000fa
:04408000682d0000a7
:020000040000fa
:04408400682d0000a3
:020000040000fa
:04408800602a0000aa
:020000040000fa
:04408c00682d00009b
:020000040000fa
:04409000682d000097
:020000040000fa
:04409400682d000093
:020000040000fa
:04409800682d00008f
:020000040000fa
:04409c0052290000a5
:020000040000fa
:0440a000682d000087
:020000040000fa
:0440a400682d000083
:020000040000fa
:0440a800682d00007f
:020000040000fa
:0440ac00682d00007b
:020000040000fa
:0440b000682d000077
:020000040000fa
:0440b400682d000073
:020000040000fa
:0440b800a82b000031
:020000040000fa
:0440bc00682d00006b
:020000040000fa
:0440c000682d000067
:020000040000fa
:0440c400682d000063
:020000040000fa
:0440c800682d00005f
:020000040000fa
:0440cc00682d00005b
:020000040000fa
:0440d000682d000057
:020000040000fa
:0440d400682d000053
:020000040000fa
:0440d800682d00004f
:020000040000fa
:0440dc00682d00004b
:020000040000fa
:0440e000682d000047
:020000040000fa
:0440e400682d000043
:020000040000fa
:0440e800682d00003f
:020000040000fa
:0440ec00682d00003b
:020000040000fa
:0440f000682d000037
:020000040000fa
:0440f400682d000033
:020000040000fa
:0440f800682d00002f
:020000040000fa
:0440fc007029000027
:020000040000fa
:04410000682d000026
:020000040000fa
:04410400682d000022
:020000040000fa
:04410800682d00001e
:020000040000fa
:04410c00682d00001a
:020000040000fa
:04411000682d000016
:020000040000fa
:04411400682d000012
:020000040000fa
:04411800682d00000e
:020000040000fa
:04411c00682d00000a
:020000040000fa
:04412000682d000006
:020000040000fa
:04412400682d000002
:020000040000fa
:04412800682d0000fe
:020000040000fa
:04412c00682d0000fa
:020000040000fa
:04413000682d0000f6
:020000040000fa
:04413400682d0000f2
:020000040000fa
:04413800682d0000ee
:020000040000fa
:04413c00682d0000ea
:020000040000fa
:04414000682d0000e6
:020000040000fa
:04414400682d0000e2
:020000040000fa
:04414800682d0000de
:020000040000fa
:04414c00682d0000da
:020000040000fa
:04415000682d0000d6
:020000040000fa
:04415400682d0000d2
:020000040000fa
:04415800682d0000ce
:020000040000fa
:04415c00682d0000ca
:020000040000fa
:04416000682d0000c6
:020000040000fa
:04416400682d0000c2
:020000040000fa
:04416800682d0000be
:020000040000fa
:04416c00682d0000ba
:020000040000fa
:04417000682d0000b6
:020000040000fa
:04417400682d0000b2
:020000040000fa
:04417800682d0000ae
:020000040000fa
:04417c00682d0000aa
:020000040000fa
:04418000682d0000a6
:020000040000fa
:04418400682d0000a2
:020000040000fa
:04418800682d00009e
:020000040000fa
:04418c00682d00009a
:020000040000fa
:04419000682d000096
:020000040000fa
:04419400682d000092
:020000040000fa
:04419800682d00008e
:020000040000fa
:04419c00682d00008a
:020000040000fa
:0441a000682d000086
:020000040000fa
:0441a400682d000082
:020000040000fa
:0441a800682d00007e
:020000040000fa
:0441ac00682d00007a
:020000040000fa
:0441b000682d000076
:020000040000fa
:0441b400682d000072
:020000040000fa
:0441b800682d00006e
:020000040000fa
:0441bc00682d00006a
:020000040000fa
:0441c000682d000066
:020000040000fa
:0441c400682d000062
:020000040000fa
:0441c800682d00005e
:020000040000fa
:0441cc00682d00005a
:020000040000fa
:0441d000682d000056
:020000040000fa
:0441d400682d000052
:020000040000fa
:0441d800682d00004e
:020000040000fa
:0441dc00682d00004a
:020000040000fa
:0441e000682d000046
:020000040000fa
:0441e400682d000042
:020000040000fa
:0441e800682d00003e
:020000040000fa
:0441ec00682d00003a
:020000040000fa
:0441f000682d000036
:020000040000fa
:0441f400682d000032
:020000040000fa
:0441f800682d00002e
:020000040000fa
:0441fc00682d00002a
:020000040000fa
:105000004f6324000e7f24000e0188000000000082
:10501000000020000000e00002003200000120003b
:105020002002880014000700ab0207000000e00027
:1050300003003a00207d2300010020000200370019
:105040000000200001002000810f700001003200ec
:1050500014000700000020000000e0000200320001
:1050600000000200000000007c2d02000000000093
:105070000040da000000fe004440a90020002000ab
:105080000000e000030032001000200090018800c2
:105090004440a800000006008a1f78008b1f78009b
:1050a00000000600a1028800800478000000eb00e8
:1050b0001f003700e284440054a0b4009905ba00f0
:1050c000e284440054a0b4009906ba00e28444008b
:1050d00054a0b4000006eb00476fde00fd07b200ed
:1050e000ae018800636ce10003003a00eaff0700ac
:1050f0000000eb000e003700606ce10008003a0091
:10510000004deb000a05e800020039003420ec00f5
:105110000af0a0008b05e900f9ff3e00040037000b
:105120006168e100010032000086eb000b0007001f
:1051300019c7ba001905ba000e04e00003003a00ce
:105140000a00e000dbff3a0000000600fe07b200a4
:10515000ae0288008a047800f5ff37000cd0a30067
:10516000e20f4d001c00390089027800354dba006d
:105170000a05e800020039003420ec000af0a00023
:105180008b05e9000f003200254dba000a05e80042
:10519000020039003420ec000af0a0008b05e90081
:1051a000080032000c00e0000600320015cdba0005
:1051b0000a05e800020039003420ec000af0a000e3
:1051c0008b05e9008984e80054a0b4000b00e000de
:1051d000e2ff3a00000006009902ba00055d78007f
:1051e0008b05e900f7ff3200c82ade00055d780074
:1051f0008b05e900f3ff32000c00e000f1ff320004
:1052000019ddba00eeff3700801f78000000fa00b9
:105210008860a90010c0b3007ee8b7000080fa00e3
:105220004f00780000400600801f78000000fa0060
:1052300088e0a90010c0b3007fe8b7000080fa0042
:105240004f00780000400600801f78000000fa0040
:105250008900a90010c0b30080e8b7000080fa0000
:105260004f00780000400600809fbe000000fa005a
:105270008a80a90076c8bf000040e80076e8b70041
:10528000004080001140800061004000e080480044
:1052900000408800114088000080fa004f00be00e6
:1052a00000400600809fbe000000fa008ba0a9000d
:1052b00079c8bf000040e80079e8b70020408000ce
:1052c0003140800061004000e080480020408800bc
:1052d000314088000080fa004f00be000040060008
:1052e000809fbe000000fa008ea0a9007ac8bf000f
:1052f0000040e8007ae8b70040408000514080005c
:1053000061004000e0804800404088005140880033
:105310000080fa004f00be0000400600809fbe00e3
:105320000000fa008920a900e11f80000008200089
:10533000008060000000e00003003200fce3a900f0
:10534000b0c0b30077e8b7000080fa004f00be009d
:10535000004006003600f800809fbe00829fbe001d
:10536000849fbe00869fbe000200fa0089c0a9008b
:10537000c0268000700060000000e0000e003200d7
:105380007b46a800d884a900d0002000a041880056
:10539000d04280000000e000420032007c0607009e
:1053a0008040880080408000d142800081407800a9
:1053b000517899003b003700c12680000002200090
:1053c000008060000000e00033003200d8a4a90093
:1053d000804080000000e000210032000000eb006f
:1053e000000f7800080037008040800080007800bf
:1053f0001e0078000000400000804000100078008f
:10540000002088001e0fe800f01f80000040780098
:10541000f043b2000080fb00ed0f5000f2ff3400bb
:105420001e0078000000400080007800804080006e
:1054300000804000d0268800000620001e0050009a
:10544000f0268800d604a80000012000a0418800b2
:105450009021ef007e68ef0095e1a800030037007f
:10546000d604a90010012000a041880060408000ff
:1054700060999000e1ff2f00810061006198980021
:105480006040800050060700804080006040880037
:105490001028ef0003003700d604a90020012000e7
:1054a000a04188000080fa004f03be004f02be00fa
:1054b0004f01be004f00be003600f900004006005c
:1054c0003600f800809fbe00829fbe00849fbe0011
:1054d000869fbe000200fa008b00a9001027800002
:1054e000700060000000e0001e003200e284a900ad
:1054f000d0002000b0418800e04180000000e000c2
:1055000014003200f8050700d0408800d240800027
:105510006000b8006099980071999800d0408000b0
:1055200031852000914078008140e800e3c06000b0
:105530008180fb00e3806000c408dd00e0999000fa
:10554000f2fc2f0002816100828070006198980057
:1055500078003700e004a90020012000b041880055
:1055600074003700112780000002200000806000d6
:105570000000e0006c003200e2a4a900d0408000ee
:1055800030278800e005200040278800e004a800bc
:1055900000012000b0418800a1e1a9007f68ef0070
:1055a0007968ef0030428000414280006100400095
:1055b000e08048003042880041428800a0408000de
:1055c000104078000080fb007f006000c800dd0014
:1055d000a0408000304090000080fb00010070007f
:1055e000000f7800f0ff21009e007800808f5000af
:1055f00009003a0055c8bf00ee4f500006003e00bb
:1056000055c8bf000040e80055e8b700a040800042
:10561000ed05070040003700a040800051852000c4
:1056200091407800efc060008180fb00cc08dd0075
:10563000f0999000f2ff20000281610082807000ea
:10564000719898005568ef00504280000000e80013
:1056500050428800a0408000514280008140780084
:10566000efc060008180fb00ef806000c408dd00b7
:10567000f0999000f2f02f000281610082807000aa
:1056800071989800a2408000f042800001438000a1
:1056900061004000e0804800f0428800014388003b
:1056a000f042800001438000004078006f406000bd
:1056b0000080fb006f006000f299900001ff2f0056
:1056c000818061000100700070999800a040800006
:1056d0008181200091407800e1c060008180fb0062
:1056e000e180600081804000e0999000d2ff2f00af
:1056f0000281610082807000619898001868ef0054
:10570000a0408000e09890000100a00061989800ff
:10571000a0408000d9050700d0408000a04088004c
:105720001a28ef0003003700e004a9002001200040
:10573000b04188000080fa004f03be004f02be0057
:105740004f01be004f00be003600f90000400600c9
:105750003600f800809fbe00829fbe00849fbe007e
:10576000869fbe000200fa008c80a900602780009e
:10577000700060000000e0001d003200ec84a90011
:10578000d0002000c0418800e04180000000e0001f
:105790001300320054050700204188002241800098
:1057a0006000b800609998007199980020418000cd
:1057b0003185200091407800e3c060008180fb00cb
:1057c000e3806000c408dd00e0999000f2fc2f0047
:1057d0000281610082807000619898007800370033
:1057e000ea04a90020012000c041880074003700ad
:1057f0006127800000022000008060000000e000bf
:105800006c003200eca4a9002041800080278800b1
:10581000e005200090278800ea04a800000120008d
:10582000c0418800a3e1a9008068ef007a68ef001a
:10583000604280007142800061004000e0804800ca
:10584000604288007142880010418000104078005a
:105850000080fb007f006000c800dd001041800078
:10586000304090000080fb0001007000000f7800c5
:10587000f0ff21009e007800808f500009003a0060
:1058800056c8bf00ee4f500006003e0056c8bf008d
:105890000040e80056e8b700104180004a050700c4
:1058a0004000370010418000618520009140780061
:1058b000efc060008180fb00cc08dd00f099900013
:1058c000f2ff2000028161008280700071989800d0
:1058d0005668ef00804280000000e80080428800a7
:1058e000104180008142800081407800efc060005c
:1058f0008180fb00ef806000c408dd00f09990001b
:10590000f2f02f000281610082807000719898008f
:1059100012418000f042800001438000610040009d
:10592000e0804800f042880001438800f042800097
:1059300001438000004078006f4060000080fb0061
:105940006f006000f299900001ff2f0081806100dc
:1059500001007000709998001041800001822000c1
:1059600091407800e1c060008180fb00e180600030
:1059700081804000e0999000d2ff2f0002816100f9
:1059800082807000619898002068ef0010418000cc
:10599000e09890000100a0006198980010418000fc
:1059a0003605070020418000104188002428ef00c0
:1059b00003003700ea04a90020012000c04188004c
:1059c0000080fa004f03be004f02be004f01be0030
:1059d0004f00be003600f90000400600809fbe0068
:1059e000821f78000200fa008a00a900f1248000da
:1059f00000042000008060000000e0000100320090
:105a00009ec4a9000080eb00000f7800f024800005
:105a1000620060000000e00029003200a024800045
:105a2000000f78009b84a800f12480000002200071
:105a3000008060000000e00011003a00e0ff2f004d
:105a40009e00600054c8bf000080fb00808f5000a3
:105a50001b003a004028ef00004280009e007800c2
:105a600001417800c1882000827078000000e800c1
:105a7000004288001000200010428800100037000b
:105a800010428000e10f50000d003a0000428000fb
:105a90009e00780001417800c18820008270780063
:105aa0000000e8000042880000428000e30f500040
:105ab0000300360010002000204288004228ef003a
:105ac0000080fa004f0178004f00be000040060041
:105ad0000040da000000fe000000050080017800b0
:105ae00002003700815978000201e9000200e0005d
:085af000fcff3a000000060073
:020000040000fa
:105af8000600fa008020ef0081e0a9008220ef0074
:105b08008300a8006a26ef007e26ef006626ef00d5
:105b18007a26ef0000fe2f00103388000080eb008b
:105b2800b03388006826ef007c26ef007226ef006d
:105b38000080eb00303488007426ef008826ef00e0
:105b48009820ef009a20ef009c20ef009e20ef00a5
:105b5800a020ef00c424ef009823ef00ae23ef004d
:105b6800a021ef003022ef003222ef003a22ef00ae
:105b78003c22ef003622ef003422ef004022ef00f3
:105b88003e22ef006c26ef008026ef006e26ef0025
:105b98008226ef007b06a9007706a9008706a900e0
:105ba8007b46a8007746a9008746a9000000eb00bd
:105bb80010079800030037001e0090000000e8005e
:105bc800100798009e009000f0342c00808f500041
:105bd800f9ff3600c03380004c00de0061406000f1
:105be8000080fb000000400080007800c033800087
:105bf8004d00de00614060000080fb000080400036
:105c0800004078000040400053e8b700318520008c
:105c18009140780080cdb30000c0400054e8b70040
:105c2800d13d800000fc2f00008060007000b300b0
:105c3800d03d8800c13d8000f00f2c0080806000be
:105c480000b0200001007000c03d8800e13e8000e7
:105c580000f82f00008060007000b300e03e88006c
:105c6800fc23ef00fe23ef00f423ef00f623ef0000
:105c7800f823ef000824ef000a24ef00f4a3a9009a
:105c8800f583a900f4e3a800f503a800f4c3a9006c
:105c9800f543a800f563a900f403a8000024ef0069
:105ca8000224ef00fcc3a900f7a3a8000804a80079
:105cb8000864a80008e4a8000ae4a80051208000ad
:105cc80000fc2f0000806000c000b3005020880056
:105cd8009920a800f13d800000fc2f0000806000a2
:105ce8000010a000f03d8800e13d8000f00f2c007e
:105cf800808060000090200001007000e03d880076
:105d0800e13d800000fc2f00008060000020a00022
:105d1800e03d88001824ef001a24ef001024ef005b
:105d28001224ef001424ef002424ef002624ef00af
:105d380010a4a9001184a80010e4a80010c4a800a9
:105d48001104a8001144a8001164a9002404a800a3
:105d58001c24ef001e24ef0018c4a90013a4a800f7
:105d68009c00a800513e800000fc2f0000806000cd
:105d7800503e8800413e8000f00f2c00808060007b
:105d880000e0200001007000403e8800413e800095
:105d980000fc2f00008060000000a000403e88004a
:105da8003424ef003624ef002c24ef002e24ef00db
:105db8003024ef004024ef004224ef002ca4a90077
:105dc8002d84a8002ce4a8002cc4a8002d04a80049
:105dd8002d44a8002d64a9004004a8003824ef0031
:105de8003a24ef0034c4a9002fa4a800a340a800b7
:105df800c424ef00c5e4a800c404a800408920001a
:105e0800402688004126800000ca23000080400008
:105e180050268800d624ef00d824ef00b126800051
:105e2800f0f32f00008060000060a000b02688001a
:105e3800b1268000f0fc2f0000806000b0268800aa
:105e4800b126800030ff2f0000806000b026880057
:105e5800d624a900c1268000f00f280080806000a9
:105e68000070220001007000c0268800d804a80035
:105e780000402000e026880099c0a800e024ef0038
:105e8800e224ef0001278000f0f32f00008060007b
:105e98000027880001278000f0fc2f0000806000a8
:105ea8000040a000002788000127800030ff2f0055
:105eb8000080600000278800e024a90011278000e6
:105ec800f00f280080806000003022000100700080
:105ed80010278800e204a800c0412000202788007d
:105ee8009b00a800ea24ef00ec24ef005127800073
:105ef800f0f32f00008060005027880051278000b1
:105f0800f0fc2f00008060000040a00050278800af
:105f18005127800030ff2f00008060005027880044
:105f2800ea24a90061278000f00f280000806000a3
:105f380000d0a00060278800ec04a800804320005f
:105f4800702788009c80a8004228ef004428ef00b2
:105f58009a24ef009c24ef00a224ef009be4a80001
:105f680054c8bf000080fb000000d100004078004a
:105f78000080fb00002588009b64a8009ac4a80044
:105f88009b84a8009e24ef009c84a8008a00a90096
:105f98009a00a800813c8000f00f2c0080806000ef
:105fa8000070200001007000803c88008220a8005a
:105fb800913c800000fc2f00008060000010a000d1
:105fc800903c88008240a800913c8000f00f2c0093
:105fd80000806000903c88008260a8009a80a80039
:105fe8009ba0a8009ea0a8009421ef00a10c80000f
:105ff800f0fc2f00008060000040a000a00c88008a
:106008009860a800a021ef00010d8000f0fc2f008f
:10601800008060000040a000000d880098e0a80003
:10602800a221ef00110d8000f0fc2f00008060001d
:106038000040a000100d88009900a80083e0a80087
:106048000000eb00000f78002b0037006666a900ff
:106058000000eb0010079800030037001e009000b6
:106068000000e800100798009e009000f0c3290087
:10607800808f5000f9ff36000000eb0010079800f1
:10608800030037001e0090000000e8001007980089
:106098009e009000f0c32900808f5000f9ff360061
:1060a8006666a8000000eb001007980003003700a0
:1060b8001e0090000000e800100798009e00900065
:1060c800f0c32900808f5000f9ff36000000eb0074
:1060d80010079800030037001e0090000000e80039
:1060e800100798009e009000f0c32900808f500090
:1060f800f9ff36001e0fe8001e007800e90f500077
:10610800d2ff360010c0b30018e8b70010c0b300c3
:1061180020e8b7007b46a8002a68ef002b68ef004c
:106128000c28ef001428ef002228ef001028ef00b9
:106138001a28ef002428ef001268ef001c68ef000f
:106148002668ef003428ef003628ef003828ef00e3
:106158007768ef007868ef007868ef007668ef00fe
:106168007968ef007a68ef006628ef006828ef008a
:106178006a28ef006c28ef004628ef004828ef0057
:106188004c28ef004e28ef005568ef005668ef00e6
:106198003c28ef005a28ef007068ef008468ef0091
:1061a8005e28ef006028ef0060c0b30012e8b70077
:1061b80060c0b3001ce8b70060c0b30026e8b700b1
:1061c8003e28ef003a28ef005c28ef005c28ef003b
:1061d80002ca23008000eb00408920003dfe070032
:1061e8000000eb00000f78000b0037009e007800dd
:1061f800200c20000088b900800078004089200029
:1062080000804000ee0207008ac8bf000040e80096
:106218008ae8b7001e0fe800f00420009e0078000e
:10622800808f5000f1ff360010c0b30012e8b700ad
:1062380010c0b3001ce8b70010c0b30026e8b700d0
:10624800204280000000e000610032004428ef0096
:10625800c08820009040780054c8bf0080cf50000c
:106268005b003a00d08820009040780050ccb30002
:1062780080cf500056003a00e08820001040780097
:106288008080fb00f0882000104078000080fb0030
:1062980080804000f00f2000808f50004c003a00b2
:1062a800e0882000104078000080fb00200798005c
:1062b8002e009000620060000000e0000c00320038
:1062c8002e0090000040780061406000614060004e
:1062d800614060000080fb00610060003233800094
:1062e800e1ff2f0081006100010070003033880059
:1062f8002e009000680060000000e0000e003200f0
:106308002e0090004200de000040780061406000ee
:1063180061406000614060000080fb006100600037
:106328000000400032338000d1ff2f00810061005f
:106338000100700030338800ae0090000002200099
:10634800008060000000e0000e0032002e00900087
:106358004400de0000407800614060006140600059
:10636800614060000080fb00610060004200dd00c9
:1063780032338000b1ff2f008100610001007000fe
:1063880030338800ae0090000008200000806000d4
:106398000000e0000e0032002e0090004600de00f3
:1063a800004078006140600061406000614060002a
:1063b8000080fb00610060004400dd003233800093
:1063c800f1fe2f0081006100010070003033880069
:1063d8002b02070032428000434280006042800066
:1063e8007142800002004000838048004809dd00b7
:1063f8004800de0000007100c808de000040780098
:106408006140600061406000614060000080fb0006
:10641800610060004300dd003233800071ff2f000f
:106428008100610001007000303388001f020700fe
:1064380003000700d00007007101070080ff370044
:106448000200fa0012c8bf000080fb00ea0f5000eb
:106458000f003200ea0f500005003c00e10f500029
:1064680008003200e60f50008d003200950037001a
:10647800ef0f50004d003200f10f50007300320052
:1064880090003700a0c0b30012e8b7008d003700b5
:10649800d04280000000e00041003200c13380009b
:1064a80000082000008060000000e0003c0032008e
:1064b800d604a900d824ef00c1268000f00f2800d8
:1064c800808060000070220001007000c0268800f3
:1064d80089c0a900d804a800f5e3a900fc23ef00af
:1064e8008920a900e601070027020700604088000c
:1064f80060408000d1428000814078005178990046
:10650800ea010700f5e3a8000000eb00000f78009f
:106518000800370060408000800078001e00780086
:106528000000400000804000100078000020880033
:106538001e0fe800f01f800000407800f043b20012
:106548000080fb00ed0f5000f2ff34000006200031
:106558001e005000f02688001e0078000000400051
:10656800800078006040800000804000d0268800cd
:106578007668ef0095e1a9007e68ef00f0c0b300ef
:1065880012e8b700f0c0b30077e8b700f0002000c9
:10659800a0418800d604a8007b46a900490037001e
:1065a800d04280006041880046003700a04180004a
:1065b800f00f500008003a00c133800000082000a6
:1065c800008060000000e00003003200f0002000be
:1065d800a04188007b46a90076c8bf000004e000ff
:1065e80008003200a10c8000000028000080600034
:1065f8000000e00003003a009021ef007e68ef0001
:1066080095e1a8007ec8bf000004e0000300320046
:106618002e000700a0c0b30012e8b700a041800018
:10662800f20f500003003a0028000700a0c0b30092
:1066380012e8b700a0418000f10f50001e003a0098
:1066480010c1b30012e8b7001e0037007ec8bf00b3
:106658000004e000040032001c000700a0c0b300e2
:1066680012e8b7001700370077c8bf00eb4f50009b
:1066780013003a0095e1a9007e68ef007668ef0004
:10668800f5e3a900a0c0b30012e8b700a0002000fd
:10669800a0418800a0c0b30077e8b7000900370020
:1066a8007b46a80009000700c0c0b30012e8b70085
:1066b8000000000003003700000000000100370060
:1066c800000000000080fa00000006000000fa0048
:1066d800704080000000e800704088009a80a9009f
:1066e80099c0a90099c0a9008a80a90089c0a900f9
:1066f8008920a9007b46a800f5e3a900d604a900d3
:106708007b46a80095e1a9007e68ef001268ef00bb
:106718007768ef003428ef005901070060408000d7
:106728000000e0000300320060408000a401070080
:106738000c28ef005d010700510107008040800030
:106748000000e00003003200804080009c01070048
:106758001028ef00550107009a80a80099c0a800ea
:1067680099c0a8008a80a90089c0a9008920a90029
:106778000080fa00000006000000fa001cc8bf00f4
:106788000080fb00e60f500070003200e60f50005a
:1067980007003c00e20f500010003200e30f5000e9
:1067a80015003200e10f5000090032007300370075
:1067b800ec0f50006a003200ec0f50006f003500fb
:1067c8006f005000e10f50006c003e00460037009b
:1067d80020c0b3001ce8b70068003700c033800051
:1067e800640060000000e0005f003a0030c0b300c1
:1067f8001ce8b70061003700c03380006400600007
:106808000000e0005a003200e04180000000e00093
:10681800300032001a01070031010700a04088004b
:1068280022010700a24080006000b800609998002b
:1068380071999800a040800031852000914078002f
:106848008140e800e3c060008180fb00e3806000d5
:10685800c408dd00e0999000f2fc2f00028161007d
:106868008280700061989800e00520004027880029
:10687800a040800030278800e224ef001127800024
:10688800f00f2800808060000030220001007000b6
:1068980010278800e204a8008b00a9001824ef0044
:1068a8008920a9007968ef00a1e1a9007f68ef00bd
:1068b800f0002000b0418800f0c0b30078e8b700cd
:1068c800f0c0b3001ce8b700e004a80011e4a80079
:1068d8002a003700e004a90011e4a90020c0b30091
:1068e8001ce8b7002500370079c8bf000004e000a5
:1068f80008003200010d80000000280000806000c0
:106908000000e00003003a009621ef007f68ef00e6
:10691800a1e1a800b0418000f20f500004003a0045
:106928001800070020c0b3001ce8b70013003700a8
:106938007fc8bf000004e0000f003200110007000c
:1069480020c0b3001ce8b7000c0037000d0007009a
:10695800c0c0b3001ce8b700000000000700370003
:1069680000000000050037000000000003003700a9
:106978000000000001003700000000000080fa005d
:10698800000006000000fa00b04080000000e800a7
:10699800b040880010c0b30018e8b700e004a900b0
:1069a80011e4a900a1e1a9007f68ef001c68ef00cd
:1069b8007868ef003628ef00b1000700a04080009b
:1069c8000000e00003003200a0408000fc00070047
:1069d8001428ef00b5000700a9000700d040800088
:1069e8000000e00003003200d0408000f4000700ff
:1069f8001a28ef00ad0007000080fa00000006002a
:106a08000000fa0026c8bf000080fb00e60f500017
:106a18006e003200e60f500007003c00e20f500005
:106a280010003200e30f500015003200e10f500053
:106a38000900320071003700ec0f50006800320086
:106a4800ec0f50006d0035006f005000e10f500052
:106a58006a003e004400370020c0b30026e8b700b3
:106a680066003700c0338000610060000000e0006d
:106a78005d003a0030c0b30026e8b7005f00370079
:106a8800c0338000610060000000e0005800320060
:106a9800e04180000000e0002e003200780007008e
:106aa8008f00070010418800800007001241800015
:106ab8006000b800609998007199980010418000b2
:106ac8003185200091407800e3c060008180fb00a0
:106ad800e3806000c408dd00e0999000f2fc2f001c
:106ae800028161008280700061989800e0052000b2
:106af800902788001041800080278800ec24ef0050
:106b080061278000f00f28000080600000d0a000fe
:106b180060278800ec04a8008c80a9003424ef00ca
:106b28008920a9007a68ef00a3e1a9008068ef0036
:106b3800f0002000c0418800f0c0b3007be8b70037
:106b4800f0c0b30026e8b700ea04a8002de4a800c6
:106b58002a003700ea04a9002de4a90020c0b300e8
:106b680026e8b700250037007ac8bf000004e00017
:106b780008003200110d800000002800008060002d
:106b88000000e00003003a009a21ef008068ef005f
:106b9800a3e1a800c0418000f20f500004003a00b1
:106ba8001800070020c0b30026e8b700130037001c
:106bb80080c8bf000004e0000f0032001100070089
:106bc80020c0b30026e8b7000c0037000d0007000e
:106bd800c0c0b30026e8b700000000000700370077
:106be8000000000005003700000000000300370027
:106bf8000000000001003700000000000080fa00db
:106c0800000006000000fa00f04080000000e800e4
:106c1800f040880010c0b30018e8b700ea04a900e3
:106c28002de4a900a3e1a9008068ef002668ef0021
:106c38007b68ef003828ef00110007001041800042
:106c48000000e00003003200104180005c000700f3
:106c58002228ef00150007000900070020418000e6
:106c68000000e000030032002041800054000700cb
:106c78002428ef000d0007000080fa00000006003d
:106c88000000fa00100280004500de006740600046
:106c980052e8b70011028000000e200001007000c9
:106ca800100288000080fa00000006000000fa00c8
:106cb80052c8bf00674060000080fb0067006000aa
:106cc8004500dd0012028000f1f12f008100610013
:106cd80001007000100288000080fa000000060021
:106ce8000000fa00f04180000000e00007003200d8
:106cf800e04180000000e900e0418800a183200015
:106d0800e083200069000700010037000000eb0065
:106d18000080fa00000006000000fa00904380009e
:106d28000000e0000700320070c8bf000040e90022
:106d380070e8b700e1862000208720005b0007008c
:106d4800010037000000eb000080fa000000060098
:106d58000000fa00304480000000e0000700320024
:106d680084c8bf000040e90084e8b70021882000fb
:106d7800608820004d000700010037000000eb008c
:106d88000080fa00000006000000fa00e0428000df
:106d98000000e00007003200d04280000000e90057
:106da800d042880081852000c08520003f00070070
:106db800010037000000eb000080fa000000060028
:106dc8000200fa00000f78001e0078000000e000c2
:106dd8000a003200e04180000000e800e04188003d
:106de8008ac8bf000040e9008ae8b7001e017800a1
:106df800a1832000e08320004a0007000080fa00f9
:106e0800000006000200fa00000f78001e0078005b
:106e18000000e0000700320070c8bf000040e80032
:106e280070e8b7001e017800e18620002087200066
:106e38003c0007000080fa00000006000200fa008b
:106e4800000f78001e0078000000e0000700320004
:106e580084c8bf000040e80084e8b7001e0178003d
:106e680021882000608820002e0007000080fa009a
:106e7800000006000200fa00000f78001e007800eb
:106e88000000e00007003200d04280000000e80067
:106e9800d04288001e01780081852000c08520002e
:106ea800200007000080fa00000006000600fa0033
:106eb80010079800210798001e0090001000780025
:106ec8000000e00003003a000000eb00000f78002b
:106ed800110037001e009000100f78001e00780087
:106ee80000a09000800078001e0090000108780043
:106ef8001e0078008000eb0001a098001e009000a2
:106f0800100078000000e00003003a002e00900016
:106f18008000eb00010878001e0078000080fa006d
:106f2800000006000600fa00000f7800110798001c
:106f3800220798001e009000100078000000e00072
:106f48000a003a002e0090008000eb0001a0980093
:106f58001e007800ae009000010878001e00900026
:106f6800ae009000010878000a0037001e0090006b
:106f780010007800ae00900001a098001e0090005c
:106f8800ae009000010878002e0090008000eb0011
:0c6f980001a098000080fa000000060034
:020000040000fa
:106fa40034450000000100008200000000d57f008d
:106fb400aafe2b0081542900fc568300d702a800a6
:106fc4007d5287002df8ac0079d306007bae040017
:106fd400d1855000fa2fa40071db0e005a8f2500d2
:106fe400f08d5800f2277300a60cd900f62389000f
:106ff4005c08dd0077a2df000aa0750021f45e00c2
:107004008b9d4800e2376300b61cc900b461cb0015
:107014001e4a9f0035e0cf001ab0650031e44e00ef
:107024009be63300994c1800cd67b20039ec46005a
:1070340093c71200b86d1000c56fba00ee3b910003
:10704400446bbe0014c1950040ea3f0042973d00e6
:10705400e8bc6900c316ef003a90450011c46e0005
:10706400bbc61300b96c3800ed479200bd68c2007e
:10707400174396003ce9940041eb3e006abf1500bb
:10708400c04b9e0034e1b50060ca1f0062b71d000a
:10709400c89c4900e3361900cc66b300e732980077
:1070a4004d30e5004f9ace001bb1640072a70d006d
:1070b400d88c5900f3265b008e24f100a570da0009
:1070c4000f20f5005f8ade000ba1740009dc760056
:1070d400a3f72200885dd60003a97c0028fd570091
:1070e40082ff2a0080550100d47eab008451fb004e
:1070f4002e7aaf0005d0ad0078d2070053862c005d
:10710400f90000008c080000a83c0000800000008a
:10711400000800008c000000800000000000000057
:020000040000fa
:1071240061e7a800023b8000860bbb00868bbb0096
:107134008783e80040232100203c8800f10f2000d1
:10714400b6dbba00b6dbba00b60bba00968bba004f
:10715400b6dbba00960bba00b68bba00a10288005f
:107164003001ba00b001ba00ffff3700811f780078
:10717400821f7800831f7800841f7800851f7800a1
:1071840042532400030020000400200005002000d6
:107194003042780084826900e2c17a008100e9000b
:1071a400fbff3a000300780000000000000000002c
:1071b40000000000cf0278004f027800cf01780071
:1071c4004f017800cf0078000000000000000000ac
:0471d40000000600b1
:020000040000fa
:020000040005f5
:045e0000f77f000028
:020000040000fa
:020000040005f5
:045e2000faffff0086
:020000040000fa
:020000040005f5
:045e2800ff7f0000f8
:020000040000fa
:020000040005f5
:045e3000e1ffff008f
:020000040000fa
:020000040005f5
:045e3800b3ffff00b5
:020000040000fa
:020000040005f5
:045e40009fffff00c1
:020000040000fa
:020000040005f5
:045e4800ffffff0059
:020000040000fa
:020000040005f5
:045e5000ddffff0073
:020000040000fa
:020000040005f5
:045e5800efffff0059
:00000001FF
