:020000040000fa
:080000000028040000000000cc
:020000040000fa
:040008007e2d000049
:020000040000fa
:04000c007e2d000045
:020000040000fa
:040010007e2d000041
:020000040000fa
:040014007e2d00003d
:020000040000fa
:040018007e2d000039
:020000040000fa
:04001c007e2d000035
:020000040000fa
:040020007e2d000031
:020000040000fa
:040024007e2d00002d
:020000040000fa
:040028007e2d000029
:020000040000fa
:04002c007e2d000025
:020000040000fa
:040030007e2d000021
:020000040000fa
:040034007e2d00001d
:020000040000fa
:040038007e2d000019
:020000040000fa
:04003c007e2d000015
:020000040000fa
:040040007e2d000011
:020000040000fa
:040044007e2d00000d
:020000040000fa
:040048007e2d000009
:020000040000fa
:04004c007e2d000005
:020000040000fa
:040050007e2d000001
:020000040000fa
:040054007e2d0000fd
:020000040000fa
:040058007e2d0000f9
:020000040000fa
:04005c007e2d0000f5
:020000040000fa
:040060007e2d0000f1
:020000040000fa
:040064007e2d0000ed
:020000040000fa
:040068007e2d0000e9
:020000040000fa
:04006c007e2d0000e5
:020000040000fa
:040070007e2d0000e1
:020000040000fa
:040074007e2d0000dd
:020000040000fa
:040078007e2d0000d9
:020000040000fa
:04007c007e2d0000d5
:020000040000fa
:040080007e2d0000d1
:020000040000fa
:040084007e2d0000cd
:020000040000fa
:040088007e2d0000c9
:020000040000fa
:04008c007e2d0000c5
:020000040000fa
:040090007e2d0000c1
:020000040000fa
:040094007e2d0000bd
:020000040000fa
:040098007e2d0000b9
:020000040000fa
:04009c007e2d0000b5
:020000040000fa
:0400a0007e2d0000b1
:020000040000fa
:0400a4007e2d0000ad
:020000040000fa
:0400a8007e2d0000a9
:020000040000fa
:0400ac007e2d0000a5
:020000040000fa
:0400b0007e2d0000a1
:020000040000fa
:0400b4007e2d00009d
:020000040000fa
:0400b8007e2d000099
:020000040000fa
:0400bc007e2d000095
:020000040000fa
:0400c0007e2d000091
:020000040000fa
:0400c4007e2d00008d
:020000040000fa
:0400c8007e2d000089
:020000040000fa
:0400cc007e2d000085
:020000040000fa
:0400d0007e2d000081
:020000040000fa
:0400d4007e2d00007d
:020000040000fa
:0400d8007e2d000079
:020000040000fa
:0400dc007e2d000075
:020000040000fa
:0400e0007e2d000071
:020000040000fa
:0400e4007e2d00006d
:020000040000fa
:0400e8007e2d000069
:020000040000fa
:0400ec007e2d000065
:020000040000fa
:0400f0007e2d000061
:020000040000fa
:0400f4007e2d00005d
:020000040000fa
:0400f8007e2d000059
:020000040000fa
:0400fc007e2d000055
:020000040000fa
:040100007e2d000050
:020000040000fa
:040104007e2d00004c
:020000040000fa
:040108007e2d000048
:020000040000fa
:04010c007e2d000044
:020000040000fa
:040110007e2d000040
:020000040000fa
:040114007e2d00003c
:020000040000fa
:040118007e2d000038
:020000040000fa
:04011c007e2d000034
:020000040000fa
:040120007e2d000030
:020000040000fa
:040124007e2d00002c
:020000040000fa
:040128007e2d000028
:020000040000fa
:04012c007e2d000024
:020000040000fa
:040130007e2d000020
:020000040000fa
:040134007e2d00001c
:020000040000fa
:040138007e2d000018
:020000040000fa
:04013c007e2d000014
:020000040000fa
:040140007e2d000010
:020000040000fa
:040144007e2d00000c
:020000040000fa
:040148007e2d000008
:020000040000fa
:04014c007e2d000004
:020000040000fa
:040150007e2d000000
:020000040000fa
:040154007e2d0000fc
:020000040000fa
:040158007e2d0000f8
:020000040000fa
:04015c007e2d0000f4
:020000040000fa
:040160007e2d0000f0
:020000040000fa
:040164007e2d0000ec
:020000040000fa
:040168007e2d0000e8
:020000040000fa
:04016c007e2d0000e4
:020000040000fa
:040170007e2d0000e0
:020000040000fa
:040174007e2d0000dc
:020000040000fa
:040178007e2d0000d8
:020000040000fa
:04017c007e2d0000d4
:020000040000fa
:040180007e2d0000d0
:020000040000fa
:040184007e2d0000cc
:020000040000fa
:040188007e2d0000c8
:020000040000fa
:04018c007e2d0000c4
:020000040000fa
:040190007e2d0000c0
:020000040000fa
:040194007e2d0000bc
:020000040000fa
:040198007e2d0000b8
:020000040000fa
:04019c007e2d0000b4
:020000040000fa
:0401a0007e2d0000b0
:020000040000fa
:0401a4007e2d0000ac
:020000040000fa
:0401a8007e2d0000a8
:020000040000fa
:0401ac007e2d0000a4
:020000040000fa
:0401b0007e2d0000a0
:020000040000fa
:0401b4007e2d00009c
:020000040000fa
:0401b8007e2d000098
:020000040000fa
:0401bc007e2d000094
:020000040000fa
:0401c0007e2d000090
:020000040000fa
:0401c4007e2d00008c
:020000040000fa
:0401c8007e2d000088
:020000040000fa
:0401cc007e2d000084
:020000040000fa
:0401d0007e2d000080
:020000040000fa
:0401d4007e2d00007c
:020000040000fa
:0401d8007e2d000078
:020000040000fa
:0401dc007e2d000074
:020000040000fa
:0401e0007e2d000070
:020000040000fa
:0401e4007e2d00006c
:020000040000fa
:0401e8007e2d000068
:020000040000fa
:0401ec007e2d000064
:020000040000fa
:0401f0007e2d000060
:020000040000fa
:0401f4007e2d00005c
:020000040000fa
:0401f8007e2d000058
:020000040000fa
:0401fc007e2d000054
:020000040000fa
:044008007e2d000009
:020000040000fa
:04400c007e2d000005
:020000040000fa
:044010007e2d000001
:020000040000fa
:044014007e2d0000fd
:020000040000fa
:044018007e2d0000f9
:020000040000fa
:04401c007e2d0000f5
:020000040000fa
:044020007e2d0000f1
:020000040000fa
:044024007e2d0000ed
:020000040000fa
:044028007e2d0000e9
:020000040000fa
:04402c007e2d0000e5
:020000040000fa
:044030007e2d0000e1
:020000040000fa
:04403400042900005b
:020000040000fa
:044038007e2d0000d9
:020000040000fa
:04403c007e2d0000d5
:020000040000fa
:044040007e2d0000d1
:020000040000fa
:04404400142900003b
:020000040000fa
:044048002429000027
:020000040000fa
:04404c008e290000b9
:020000040000fa
:044050007e2d0000c1
:020000040000fa
:044054007e2d0000bd
:020000040000fa
:044058007e2d0000b9
:020000040000fa
:04405c007e2d0000b5
:020000040000fa
:04406000aa29000089
:020000040000fa
:044064007e2d0000ad
:020000040000fa
:04406800be2c00006a
:020000040000fa
:04406c007e2d0000a5
:020000040000fa
:044070007e2d0000a1
:020000040000fa
:044074007e2d00009d
:020000040000fa
:0440780034290000e7
:020000040000fa
:04407c007e2d000095
:020000040000fa
:044080007e2d000091
:020000040000fa
:044084007e2d00008d
:020000040000fa
:04408800642a0000a6
:020000040000fa
:04408c007e2d000085
:020000040000fa
:044090007e2d000081
:020000040000fa
:044094007e2d00007d
:020000040000fa
:044098007e2d000079
:020000040000fa
:04409c0052290000a5
:020000040000fa
:0440a0007e2d000071
:020000040000fa
:0440a4007e2d00006d
:020000040000fa
:0440a8007e2d000069
:020000040000fa
:0440ac007e2d000065
:020000040000fa
:0440b0007e2d000061
:020000040000fa
:0440b4007e2d00005d
:020000040000fa
:0440b800922b000047
:020000040000fa
:0440bc007e2d000055
:020000040000fa
:0440c0007e2d000051
:020000040000fa
:0440c4007e2d00004d
:020000040000fa
:0440c8007e2d000049
:020000040000fa
:0440cc007e2d000045
:020000040000fa
:0440d0007e2d000041
:020000040000fa
:0440d4007e2d00003d
:020000040000fa
:0440d8007e2d000039
:020000040000fa
:0440dc007e2d000035
:020000040000fa
:0440e0007e2d000031
:020000040000fa
:0440e4007e2d00002d
:020000040000fa
:0440e8007e2d000029
:020000040000fa
:0440ec007e2d000025
:020000040000fa
:0440f0007e2d000021
:020000040000fa
:0440f4007e2d00001d
:020000040000fa
:0440f8007e2d000019
:020000040000fa
:0440fc007029000027
:020000040000fa
:044100007e2d000010
:020000040000fa
:044104007e2d00000c
:020000040000fa
:044108007e2d000008
:020000040000fa
:04410c007e2d000004
:020000040000fa
:044110007e2d000000
:020000040000fa
:044114007e2d0000fc
:020000040000fa
:044118007e2d0000f8
:020000040000fa
:04411c007e2d0000f4
:020000040000fa
:044120007e2d0000f0
:020000040000fa
:044124007e2d0000ec
:020000040000fa
:044128007e2d0000e8
:020000040000fa
:04412c007e2d0000e4
:020000040000fa
:044130007e2d0000e0
:020000040000fa
:044134007e2d0000dc
:020000040000fa
:044138007e2d0000d8
:020000040000fa
:04413c007e2d0000d4
:020000040000fa
:044140007e2d0000d0
:020000040000fa
:044144007e2d0000cc
:020000040000fa
:044148007e2d0000c8
:020000040000fa
:04414c007e2d0000c4
:020000040000fa
:044150007e2d0000c0
:020000040000fa
:044154007e2d0000bc
:020000040000fa
:044158007e2d0000b8
:020000040000fa
:04415c007e2d0000b4
:020000040000fa
:044160007e2d0000b0
:020000040000fa
:044164007e2d0000ac
:020000040000fa
:044168007e2d0000a8
:020000040000fa
:04416c007e2d0000a4
:020000040000fa
:044170007e2d0000a0
:020000040000fa
:044174007e2d00009c
:020000040000fa
:044178007e2d000098
:020000040000fa
:04417c007e2d000094
:020000040000fa
:044180007e2d000090
:020000040000fa
:044184007e2d00008c
:020000040000fa
:044188007e2d000088
:020000040000fa
:04418c007e2d000084
:020000040000fa
:044190007e2d000080
:020000040000fa
:044194007e2d00007c
:020000040000fa
:044198007e2d000078
:020000040000fa
:04419c007e2d000074
:020000040000fa
:0441a0007e2d000070
:020000040000fa
:0441a4007e2d00006c
:020000040000fa
:0441a8007e2d000068
:020000040000fa
:0441ac007e2d000064
:020000040000fa
:0441b0007e2d000060
:020000040000fa
:0441b4007e2d00005c
:020000040000fa
:0441b8007e2d000058
:020000040000fa
:0441bc007e2d000054
:020000040000fa
:0441c0007e2d000050
:020000040000fa
:0441c4007e2d00004c
:020000040000fa
:0441c8007e2d000048
:020000040000fa
:0441cc007e2d000044
:020000040000fa
:0441d0007e2d000040
:020000040000fa
:0441d4007e2d00003c
:020000040000fa
:0441d8007e2d000038
:020000040000fa
:0441dc007e2d000034
:020000040000fa
:0441e0007e2d000030
:020000040000fa
:0441e4007e2d00002c
:020000040000fa
:0441e8007e2d000028
:020000040000fa
:0441ec007e2d000024
:020000040000fa
:0441f0007e2d000020
:020000040000fa
:0441f4007e2d00001c
:020000040000fa
:0441f8007e2d000018
:020000040000fa
:0441fc007e2d000014
:020000040000fa
:10500000ef6324000e7f24000e01880000000000e2
:10501000000020000000e00002003200000120003b
:105020002002880014000700b60207000000e0001c
:1050300003003a00a0802300010020000200370096
:105040000000200001002000810f700001003200ec
:1050500014000700000020000000e0000200320001
:105060000000020000000000922d0200000000007d
:105070000040da000000fe004440a90020002000ab
:105080000000e000030032001000200090018800c2
:105090004440a800000006008a1f78008b1f78009b
:1050a00000000600a1028800800478000000eb00e8
:1050b0001f003700e284440054a0b4009905ba00f0
:1050c000e284440054a0b4009906ba00e28444008b
:1050d00054a0b4000006eb00476fde00fd07b200ed
:1050e000ae018800636ce10003003a00eaff0700ac
:1050f0000000eb000e003700606ce10008003a0091
:10510000004deb000a05e800020039003420ec00f5
:105110000af0a0008b05e900f9ff3e00040037000b
:105120006168e100010032000086eb000b0007001f
:1051300019c7ba001905ba000e04e00003003a00ce
:105140000a00e000dbff3a0000000600fe07b200a4
:10515000ae0288008a047800f5ff37000cd0a30067
:10516000e20f4d001c00390089027800354dba006d
:105170000a05e800020039003420ec000af0a00023
:105180008b05e9000f003200254dba000a05e80042
:10519000020039003420ec000af0a0008b05e90081
:1051a000080032000c00e0000600320015cdba0005
:1051b0000a05e800020039003420ec000af0a000e3
:1051c0008b05e9008984e80054a0b4000b00e000de
:1051d000e2ff3a00000006009902ba00055d78007f
:1051e0008b05e900f7ff3200c82ade00055d780074
:1051f0008b05e900f3ff32000c00e000f1ff320004
:1052000019ddba00eeff3700801f78000000fa00b9
:105210008860a90010c0b30090e8b7000080fa00d1
:105220004f00780000400600801f78000000fa0060
:1052300088e0a90010c0b30091e8b7000080fa0030
:105240004f00780000400600801f78000000fa0040
:105250008900a90010c0b30092e8b7000080fa00ee
:105260004f00780000400600809fbe000000fa005a
:105270008a80a90084c8bf000040e80084e8b70025
:10528000004080001140800061004000e080480044
:1052900000408800114088000080fa004f00be00e6
:1052a00000400600809fbe000000fa008ba0a9000d
:1052b00087c8bf000040e80087e8b70020408000b2
:1052c0003140800061004000e080480020408800bc
:1052d000314088000080fa004f00be000040060008
:1052e000809fbe000000fa008ea0a90088c8bf0001
:1052f0000040e80088e8b70040408000514080004e
:1053000061004000e0804800404088005140880033
:105310000080fa004f00be0000400600809fbe00e3
:105320000000fa008920a900e11f80000008200089
:10533000008060000000e00003003200fce3a900f0
:10534000b0c0b30085e8b7000080fa004f00be008f
:10535000004006003600f800809fbe00829fbe001d
:10536000849fbe00869fbe000200fa0089c0a9008b
:10537000c0268000700060000000e0000e003200d7
:105380007b46a800d884a900d0002000c041880036
:10539000404380000000e00044003200980607000f
:1053a0008040880080408000414380008140780038
:1053b000517899003d003700c1268000000220008e
:1053c000008060000000e00035003200d8a4a90091
:1053d0008c28ef008e28ef00804080000000e00065
:1053e000210032000000eb00000f780008003700b9
:1053f00080408000800078001e007800000040009f
:105400000080400010007800002088001e0fe80097
:10541000f01f800000407800f043b2000080fb00e5
:10542000ed0f5000f2ff34001e0078000000400035
:10543000800078008040800000804000d0268800f6
:10544000000620001e005000f0268800d604a800a8
:1054500000012000c04188009021ef009068ef001b
:1054600095e1a80003003700d604a9001001200030
:10547000c04188006040800060999000e1ff2f00eb
:105480008100610061989800604080006a06070012
:1054900080408000604088001028ef000300370043
:1054a000d604a90020012000c04188000080fa0035
:1054b0004f03be004f02be004f01be004f00be00b2
:1054c0003600f900004006003600f800809fbe005c
:1054d000829fbe00849fbe00869fbe000200fa002d
:1054e0008b00a90010278000700060000000e00021
:1054f0001e003200e284a900d0002000d0418800c4
:10550000004280000000e000140032001206070094
:10551000f0408800f24080006000b8006099980078
:1055200071999800f0408000118620009140780029
:105530008140e800e3c060008180fb00e380600000
:10554000c408dd00e0999000f2fc2f0002816100a8
:1055500082807000619898006b003700e004a90019
:1055600020012000d041880067003700112780000b
:1055700000022000008060000000e0005f003200b8
:10558000e2a4a900f040800030278800e005200058
:1055900040278800e004a80000012000d0418800d6
:1055a000a1e1a9009168ef008768ef00a0428000a8
:1055b000b142800061004000e0804800a0428800c5
:1055c000b1428800a0408000104078000080fb00bd
:1055d0007f006000c800dd00a040800030409000e7
:1055e0000080fb0001007000000f7800a0408000e8
:1055f0003186200091407800efc060008180fb0080
:10560000cc08dd00f0999000f2ff200002816100db
:1056100082807000719898006368ef00c04280003b
:105620000000e800c0428800a0408000c142800025
:1056300081407800efc060008180fb00ef80600057
:10564000c408dd00f0999000f2f02f0002816100a3
:105650008280700071989800a240800060438000b2
:105660007143800061004000e08048006043880092
:1056700071438800604380007143800000407800df
:105680006f4060000080fb006f006000f2999000a6
:1056900001ff2f0081806100010070007099980067
:1056a000a0408000c181200091407800e1c06000ee
:1056b0008180fb00e180600081804000e0999000e3
:1056c000d2ff2f00028161008280700061989800f3
:1056d0001c68ef00a0408000e09890000100a0004e
:1056e00061989800a040800000060700f04080000c
:1056f000a04088001e28ef0003003700e004a90046
:1057000020012000d04188000080fa004f03be0035
:105710004f02be004f01be004f00be003600f90030
:10572000004006003600f800809fbe00829fbe0049
:10573000849fbe00869fbe000200fa008c80a900f4
:1057400060278000700060000000e0001d00320053
:10575000ec84a900d0002000e041880000428000d5
:105760000000e000130032007b0507004041880084
:10577000424180006000b8006099980071999800db
:10578000404180001186200091407800e3c0600015
:105790008180fb00e3806000c408dd00e099900098
:1057a000f2fc2f00028161008280700061989800f5
:1057b0006b003700ea04a90020012000e0418800c6
:1057c0006700370061278000000220000080600031
:1057d0000000e0005f003200eca4a900404180001e
:1057e00080278800e005200090278800ea04a800b0
:1057f00000012000e0418800a3e1a9009268ef00c9
:105800008868ef00d0428000e142800061004000e3
:10581000e0804800d0428800e142880030418000aa
:10582000104078000080fb007f006000c800dd00b1
:1058300030418000304090000080fb00010070008b
:10584000000f7800304180004186200091407800b0
:10585000efc060008180fb00cc08dd00f099900073
:10586000f2ff200002816100828070007198980030
:105870006468ef00f04280000000e800f042880019
:1058800030418000f142800081407800efc060002c
:105890008180fb00ef806000c408dd00f09990007b
:1058a000f2f02f00028161008280700071989800f0
:1058b00032418000604380007143800061004000fd
:1058c000e0804800604388007143880060438000a6
:1058d00071438000004078006f4060000080fb0052
:1058e0006f006000f299900001ff2f00818061003d
:1058f00001007000709998003041800041822000c2
:1059000091407800e1c060008180fb00e180600090
:1059100081804000e0999000d2ff2f000281610059
:1059200082807000619898002468ef003041800008
:10593000e09890000100a00061989800304180003c
:105940006a05070040418000304188002828ef00a8
:1059500003003700ea04a90020012000e04188008c
:105960000080fa004f03be004f02be004f01be0090
:105970004f00be003600f90000400600809fbe00c8
:105980000200fa008a00a900f1248000000420002f
:10599000008060000000e000010032009ec4a90009
:1059a0000080eb00000f7800f024800062006000af
:1059b0000000e0004d003200a0248000000f7800bd
:1059c000f124800000022000008060000000e00060
:1059d00024003a001e00780040428800e0ff2f00bb
:1059e0009e00600062c8bf000080fb00808f5000f6
:1059f0003e003a001e00780061006000804288008e
:105a0000804280000000e00012003200514280001d
:105a100060092000808f500003003a00000220003f
:105a2000b02488000900370051428000700920002e
:105a3000808f500003003a0030002000b02488001e
:105a400002003700f00f2000b02488004628ef0045
:105a50000200370010002000304288004a28ef0082
:105a60002200370030428000e10f50000a003a0067
:105a70001e00780050428800804280000000e00054
:105a800003003a0020002000304288001700370051
:105a90004628ef001500370030428000e20f50002a
:105aa00012003a005142800040092000808f5000cf
:105ab00005003a001e00780060428800f00f2000c8
:105ac00070428800080037005142800050092000d1
:105ad000808f500004003a001e0078007042880059
:105ae00010002000904288004628ef009b84a80008
:105af0000080fa004f00be00004006000040da00bf
:105b00000000fe0000000500800178000200370060
:105b1000815978000201e9000200e000fcff3a0030
:045b2000000006007b
:020000040000fa
:105b24000600fa008020ef0081e0a9008220ef0047
:105b34008300a8006a26ef007e26ef006626ef00a9
:105b44007a26ef0000fe2f00103388000080eb005f
:105b5400b03388006826ef007c26ef007226ef0041
:105b64000080eb00303488007426ef008826ef00b4
:105b74009820ef009a20ef009c20ef009e20ef0079
:105b8400a020ef00c424ef009823ef00ae23ef0021
:105b9400a021ef003022ef003222ef003a22ef0082
:105ba4003c22ef003622ef003422ef004022ef00c7
:105bb4003e22ef006c26ef008026ef006e26ef00f9
:105bc4008226ef007b06a9007706a9008706a900b4
:105bd4007b46a8007746a9008746a9000000eb0091
:105be40010079800030037001e0090000000e80032
:105bf400100798009e009000f0342c00808f500015
:105c0400f9ff3600c03380004c00de0061406000c4
:105c14000080fb000000400080007800c03380005a
:105c24004d00de00614060000080fb000080400009
:105c3400004078000040400061e8b700c0338000b5
:105c44004d00de00614060000080fb00c006b00033
:105c5400004078000040400062e8b700d13d800079
:105c640000fc2f00008060007000b300d03d88006d
:105c7400c13d8000f00f2c008080600000b0200047
:105c840001007000c03d8800e13e800000f82f0054
:105c9400008060007000b300e03e8800fc23ef0049
:105ca400fe23ef00f423ef00f623ef00f823ef00c8
:105cb4000824ef000a24ef00f4a3a900f583a90047
:105cc400f4e3a800f503a800f4c3a900f543a80071
:105cd400f563a900f403a8000024ef000224ef00f8
:105ce400fcc3a900f7a3a8000804a8000864a8003e
:105cf40008e4a8000ae4a8005120800000fc2f005a
:105d040000806000c000b300502088009920a800e3
:105d1400f13d800000fc2f00008060000010a00016
:105d2400f03d8800e13d8000f00f2c008080600091
:105d34000090200001007000e03d8800e13d8000fb
:105d440000fc2f00008060000020a000e03d8800df
:105d54001824ef001a24ef001024ef001224ef009f
:105d64001424ef002424ef002624ef0010a4a9003b
:105d74001184a80010e4a80010c4a8001104a8000d
:105d84001144a8001164a9002404a8001c24ef00f5
:105d94001e24ef0018c4a90013a4a8009c00a800a6
:105da400513e800000fc2f0000806000503e8800bf
:105db400413e8000f00f2c008080600000e0200055
:105dc40001007000403e8800413e800000fc2f002e
:105dd400008060000000a000403e88003424ef00f2
:105de4003624ef002c24ef002e24ef003024ef00a3
:105df4004024ef004224ef002ca4a9002d84a80025
:105e04002ce4a8002cc4a8002d04a8002d44a8004c
:105e14002d64a9004004a8003824ef003a24ef00c0
:105e240034c4a9002fa4a800a340a800c424ef00f0
:105e3400c5e4a800c404a800e08920004026880026
:105e44004126800000ca23000080400050268800bc
:105e5400d624ef00d824ef00b1268000f0f32f0001
:105e6400008060000060a000b0268800b126800099
:105e7400f0fc2f0000806000b0268800b12680006e
:105e840030ff2f0000806000b0268800d624a900cf
:105e9400c1268000f00f280080806000007022007e
:105ea40001007000c0268800d804a800004020002b
:105eb400e026880099c0a800e024ef00e224ef0067
:105ec40001278000f0f32f00008060000027880085
:105ed40001278000f0fc2f00008060000040a0003b
:105ee400002788000127800030ff2f000080600019
:105ef40000278800e024a90011278000f00f280063
:105f040080806000003022000100700010278800ab
:105f1400e204a800c0412000202788009b00a800bc
:105f2400ea24ef00ec24ef0051278000f0f32f0067
:105f3400008060005027880051278000f0fc2f006b
:105f4400008060000040a000502788005127800096
:105f540030ff2f000080600050278800ea24a90049
:105f640061278000f00f28000080600000d0a000ae
:105f740060278800ec04a800804320007027880074
:105f84009c80a8004628ef004828ef004c28ef002a
:105f94004e28ef005228ef009a24ef009c24ef00d3
:105fa400a224ef009be4a80062c8bf000080fb00ad
:105fb4000000d100004078000080fb00002588002c
:105fc4009b64a8009ac4a8009b84a8009e24ef00a8
:105fd4009c84a8008a00a9009a00a80051058000aa
:105fe400f0f82f00808060000005200001007000a0
:105ff40050058800813c8000f00f2c0080806000f8
:106004000070200001007000803c88008220a800fd
:10601400913c800000fc2f00008060000010a00074
:10602400903c88008240a800913c8000f00f2c0036
:1060340000806000903c88008260a8009a80a800dc
:106044009ba0a8009ea0a8009421ef00a10c8000b2
:10605400f0fc2f00008060000040a000a00c88002d
:106064009860a800a021ef00010d8000f0fc2f0033
:10607400008060000040a000000d880098e0a800a7
:10608400a221ef00110d8000f0fc2f0000806000c1
:106094000040a000100d88009900a80083e0a8002b
:1060a4000000eb00000f78002b0037006666a900a3
:1060b4000000eb0010079800030037001e0090005a
:1060c4000000e800100798009e009000f0c329002b
:1060d400808f5000f9ff36000000eb001007980095
:1060e400030037001e0090000000e800100798002d
:1060f4009e009000f0c32900808f5000f9ff360005
:106104006666a8000000eb00100798000300370043
:106114001e0090000000e800100798009e00900008
:10612400f0c32900808f5000f9ff36000000eb0017
:1061340010079800030037001e0090000000e800dc
:10614400100798009e009000f0c32900808f500033
:10615400f9ff36001e0fe8001e007800e90f50001a
:10616400d2ff360010c0b3001ce8b70010c0b30063
:1061740024e8b7007b46a8002e68ef002f68ef00e4
:106184000c28ef001428ef002628ef001028ef0059
:106194001e28ef002828ef001268ef002068ef00a7
:1061a4002a68ef003828ef003a28ef003c28ef0077
:1061b4008568ef008668ef008668ef008468ef006a
:1061c4008768ef008868ef007428ef007628ef00f6
:1061d4007828ef007a28ef005428ef005628ef00c3
:1061e4005a28ef005c28ef006368ef006468ef0052
:1061f4004028ef006828ef007e68ef009668ef0003
:106204006c28ef006e28ef008c28ef008e28ef003a
:1062140060c0b30012e8b70060c0b30020e8b70064
:1062240060c0b3002ae8b7004228ef003e28ef0020
:106234006a28ef006a28ef0002ca23008000eb00fe
:10624400e08920002ffe07000000eb00000f78001b
:106254000b0037009e007800200c20000088b90055
:1062640080007800e089200000804000f1020700ef
:106274009cc8bf000040e8009ce8b7001e0fe8007f
:10628400f00420009e007800808f5000f1ff36005b
:1062940010c0b30012e8b70010c0b30020e8b70084
:1062a40010c0b3002ae8b700904280000000e0006c
:1062b400510032005228ef00614280007042800099
:1062c40080804000f00f2000808f50004a003a0088
:1062d40061428000210798002e0090006200600057
:1062e4000000e0000c0032002e0090000040780016
:1062f4006140600061406000614060000080fb001c
:106304006100600032338000e1ff2f0081006100f2
:1063140001007000303388002e0090006800600097
:106324000000e0000e0032002e0090004200de006b
:10633400004078006140600061406000614060009e
:106344000080fb00610060000000400032338000e8
:10635400d1ff2f00810061000100700030338800fc
:10636400ae00900000022000008060000000e00009
:106374000e0032002e0090004400de000040780041
:106384006140600061406000614060000080fb008b
:10639400610060004200dd0032338000b1ff2f0055
:1063a400810061000100700030338800ae0090006d
:1063b40000082000008060000000e0000e003200b1
:1063c4002e0090004600de0000407800614060002e
:1063d40061406000614060000080fb00610060007b
:1063e4004400dd0032338000f1fe2f0081006100a3
:1063f40001007000303388003a02070062448000d4
:1064040073448000f0a7210061002000800f510038
:10641400818f5900020036006666a9001c0037000f
:10642400604480007144800061004000e0804800c6
:106434006044880071448800a2428000b342800016
:10644400d0428000e1428000020040008380480086
:106454004809dd004800de0000007100c808de00c5
:10646400004078006140600061406000614060006d
:106474000080fb00610060004300dd0032338000d7
:1064840071ff2f008100610001007000303388002b
:106494002202070003000700d00007007101070073
:1064a40081ff37000200fa0012c8bf000080fb0021
:1064b400ea0f50000f003200ea0f500005003c00c4
:1064c400e10f500008003200e60f50008d0032004a
:1064d40095003700ef0f50004d003200f10f5000cf
:1064e4007300320090003700a0c0b30012e8b70078
:1064f4008d003700404380000000e000410032007e
:10650400c133800000082000008060000000e0002b
:106514003c003200d604a900d824ef00c126800034
:10652400f00f2800808060000070220001007000dd
:10653400c026880089c0a900d804a800f5e3a900f2
:10654400fc23ef008920a900e60107002b020700c5
:1065540060408800604080004143800081407800b2
:1065640051789900ed010700f5e3a8000000eb0065
:10657400000f780008003700604080008000780039
:106584001e007800000040000080400010007800e9
:10659400002088001e0fe800f01f800000407800f3
:1065a400f043b2000080fb00ed0f5000f2ff340016
:1065b400000620001e005000f02688001e0078000f
:1065c40000004000800078006040800000804000af
:1065d400d02688008468ef0095e1a9009068ef0058
:1065e400f0c0b30012e8b700f0c0b30085e8b7000c
:1065f400f0002000c0418800d604a8007b46a90012
:10660400490037004043800080418800460037003d
:10661400c0418000f00f500008003a00c1338000f0
:1066240000082000008060000000e0000300320049
:10663400f0002000c04188007b46a90084c8bf0048
:106644000004e00008003200a10c800000002800d3
:10665400008060000000e00003003a009021ef0099
:106664009068ef0095e1a80090c8bf000004e00026
:10667400030032002e000700a0c0b30012e8b700e8
:10668400c0418000f20f500003003a0028000700c8
:10669400a0c0b30012e8b700c0418000f10f500061
:1066a4001e003a0010c1b30012e8b7001e00370004
:1066b40090c8bf000004e000040032001c00070082
:1066c400a0c0b30012e8b7001700370085c8bf00a8
:1066d400eb4f500013003a0095e1a9009068ef00d9
:1066e4008468ef00f5e3a900a0c0b30012e8b70086
:1066f400a0002000c0418800a0c0b30085e8b70016
:10670400090037007b46a80009000700c0c0b30099
:1067140012e8b7000000000003003700000000008a
:1067240001003700000000000080fa0000000600ad
:106734000000fa00704080000000e800704088000b
:106744009a80a90099c0a90099c0a9008a80a900cb
:1067540089c0a9008920a9007b46a800f5e3a90007
:10676400d604a9007b46a80095e1a9009068ef0033
:106774001268ef008568ef003828ef005901070020
:10678400604080000000e0000300320060408000b0
:10679400a80107000c28ef00600107005101070061
:1067a400804080000000e000030032008040800050
:1067b400a00107001028ef00580107009a80a800e4
:1067c40099c0a80099c0a8008a80a90089c0a9001e
:1067d4008920a9000080fa00000006000000fa00e9
:1067e40020c8bf000080fb00e60f5000700032009c
:1067f400e60f500007003c00e20f5000100032008a
:10680400e30f500015003200e10f50000900320080
:1068140073003700ec0f50006a003200ec0f500098
:106824006f0035006f005000e10f50006c003e0017
:106834004600370020c0b30020e8b70068003700e6
:10684400c0338000640060000000e0005f003a0094
:1068540030c0b30020e8b70061003700c0338000c7
:10686400640060000000e0005a0032000042800032
:106874000000e000300032001a0107003501070073
:10688400a040880025010700a24080006000b800f5
:106894006099980071999800a040800011862000aa
:1068a400914078008140e800e3c060008180fb00f3
:1068b400e3806000c408dd00e0999000f2fc2f0042
:1068c400028161008280700061989800e0052000d8
:1068d40040278800a040800030278800e224ef0091
:1068e40011278000f00f2800808060000030220013
:1068f4000100700010278800e204a8008b00a900a2
:106904001824ef008920a9008768ef00a1e1a900fd
:106914009168ef00f0002000d0418800f0c0b3007f
:1069240086e8b700f0c0b30020e8b700e004a80090
:1069340011e4a8002a003700e004a90011e4a9002a
:1069440020c0b30020e8b7002500370087c8bf0087
:106954000004e00008003200010d8000000028005f
:10696400008060000000e00003003a009621ef0080
:106974009168ef00a1e1a800d0418000f20f50001f
:1069840004003a001800070020c0b30020e8b70054
:106994001300370091c8bf000004e0000f0032006c
:1069a4001100070020c0b30020e8b7000c00370036
:1069b4000d000700c0c0b30020e8b70000000000cd
:1069c4000700370000000000050037000000000049
:1069d4000300370000000000010037000000000041
:1069e4000080fa00000006000000fa00d040800099
:1069f4000000e800d040880010c0b3001ce8b700d5
:106a0400e004a90011e4a900a1e1a9009168ef0044
:106a14002068ef008668ef003a28ef00b100070015
:106a2400a04080000000e00003003200a04080008d
:106a3400000107001428ef00b8000700a9000700b0
:106a4400f04080000000e00003003200f0408000cd
:106a5400f80007001e28ef00b00007000080fa00cd
:106a6400000006000000fa002ac8bf000080fb00f6
:106a7400e60f50006e003200e60f500007003c00a5
:106a8400e20f500010003200e30f500015003200f6
:106a9400e10f50000900320071003700ec0f500084
:106aa40068003200ec0f50006d0035006f0050009c
:106ab400e10f50006a003e004400370020c0b300dc
:106ac4002ae8b70066003700c03380006100600028
:106ad4000000e0005d003a0030c0b3002ae8b700cf
:106ae4005f003700c0338000610060000000e000f8
:106af40058003200004280000000e0002e00320006
:106b040078000700930007003041880083000700e5
:106b1400324180006000b800609998007199980033
:106b2400304180001186200091407800e3c060006d
:106b34008180fb00e3806000c408dd00e0999000e0
:106b4400f2fc2f000281610082807000619898003d
:106b5400e0052000902788003041800080278800cd
:106b6400ec24ef0061278000f00f28000080600013
:106b740000d0a00060278800ec04a8008c80a90045
:106b84003424ef008920a9008868ef00a3e1a9005c
:106b94009268ef00f0002000e0418800f0c0b300ec
:106ba40089e8b700f0c0b3002ae8b700ea04a800f7
:106bb4002de4a8002a003700ea04a9002de4a90066
:106bc40020c0b3002ae8b7002500370088c8bf00fa
:106bd4000004e00008003200110d800000002800cd
:106be400008060000000e00003003a009a21ef00fa
:106bf4009268ef00a3e1a800e0418000f20f50008a
:106c040004003a001800070020c0b3002ae8b700c7
:106c14001300370092c8bf000004e0000f003200e8
:106c24001100070020c0b3002ae8b7000c003700a9
:106c34000d000700c0c0b3002ae8b7000000000040
:106c440007003700000000000500370000000000c6
:106c540003003700000000000100370000000000be
:106c64000080fa00000006000000fa0010418000d5
:106c74000000e8001041880010c0b3001ce8b70011
:106c8400ea04a9002de4a900a3e1a9009268ef0099
:106c94002a68ef008968ef003c28ef001100070024
:106ca400304180000000e0000300320030418000e9
:106cb400600007002628ef001800070009000700fd
:106cc400404180000000e0000300320040418000a9
:106cd400580007002828ef00100007000080fa0081
:106ce400000006000000fa00100280004500de00eb
:106cf4006740600060e8b70011028000f0f12f00e7
:106d040080806000000a20000100700010028800ea
:106d1400000000000080fa00000006000000fa00f5
:106d240060c8bf00674060000080fb00670060002f
:106d34004500dd0012028000f1f12f0081006100a6
:106d44000100700010028800000000000080fa00ba
:106d5400000006000000fa00104280000000e0007d
:106d640007003200004280000000e9000042880071
:106d7400e18320002084200069000700010037001f
:106d84000000eb000080fa00000006000000fa009a
:106d9400004480000000e000070032007ec8bf000d
:106da4000040e9007ee8b700c18720000088200089
:106db4005b000700010037000000eb000080fa00d0
:106dc400000006000000fa00c04480000000e0005b
:106dd4000700320096c8bf000040e90096e8b700fb
:106de40041892000808920004d0007000100370000
:106df4000000eb000080fa00000006000000fa002a
:106e0400504380000000e00007003200404380004f
:106e14000000e9004043880061862000a08620002d
:106e24003f000700010037000000eb000080fa007b
:106e3400000006000200fa00000f78001e0078002f
:106e44000000e0000a003200004280000000e80078
:106e5400004288009cc8bf000040e9009ce8b700dd
:106e64001e017800e1832000208420004a000700ee
:106e74000080fa00000006000200fa00000f78000b
:106e84001e0078000000e000070032007ec8bf004a
:106e94000040e8007ee8b7001e017800c1872000aa
:106ea400008820003c0007000080fa000000060073
:106eb4000200fa00000f78001e0078000000e000d5
:106ec4000700320096c8bf000040e80096e8b7000b
:106ed4001e01780041892000808920002e000700cf
:106ee4000080fa00000006000200fa00000f78009b
:106ef4001e0078000000e0000700320040438000dc
:106f04000000e800404388001e01780061862000ec
:106f1400a0862000200007000080fa000000060080
:106f24000600fa0010079800210798001e00900040
:106f3400100078000000e00003003a000000eb00bd
:106f4400000f7800110037001e009000100f780029
:106f54001e00780000a09000800078001e009000c1
:106f6400010878001e0078008000eb0001a0980062
:106f74001e009000100078000000e00003003a00ba
:106f84002e0090008000eb00010878001e007800bd
:106f94000080fa00000006000600fa00000f7800e6
:106fa40011079800220798001e0090001000780036
:106fb4000000e0000a003a002e0090008000eb0080
:106fc40001a098001e007800ae009000010878002f
:106fd4001e009000ae009000010878000a003700ff
:106fe4001e00900010007800ae00900001a09800f0
:106ff4001e009000ae009000010878002e00900062
:107004008000eb0001a098000080fa000000060058
:020000040000fa
:107014003e450000000100008200000000d57f0012
:10702400aafe2b0081542900fc568300d702a80035
:107034007d5287002df8ac0079d306007bae0400a6
:10704400d1855000fa2fa40071db0e005a8f250061
:10705400f08d5800f2277300a60cd900f62389009e
:107064005c08dd0077a2df000aa0750021f45e0051
:107074008b9d4800e2376300b61cc900b461cb00a5
:107084001e4a9f0035e0cf001ab0650031e44e007f
:107094009be63300994c1800cd67b20039ec4600ea
:1070a40093c71200b86d1000c56fba00ee3b910093
:1070b400446bbe0014c1950040ea3f0042973d0076
:1070c400e8bc6900c316ef003a90450011c46e0095
:1070d400bbc61300b96c3800ed479200bd68c2000e
:1070e400174396003ce9940041eb3e006abf15004b
:1070f400c04b9e0034e1b50060ca1f0062b71d009a
:10710400c89c4900e3361900cc66b300e732980006
:107114004d30e5004f9ace001bb1640072a70d00fc
:10712400d88c5900f3265b008e24f100a570da0098
:107134000f20f5005f8ade000ba1740009dc7600e5
:10714400a3f72200885dd60003a97c0028fd570020
:1071540082ff2a0080550100d47eab008451fb00dd
:107164002e7aaf0005d0ad0078d2070053862c00ec
:10717400f90000009e080000a03c00008000000010
:10718400000800009e0000008000000000000000d5
:020000040000fa
:1071940061e7a800023b8000860bbb00868bbb0026
:1071a4008783e80040232100203c8800f10f200061
:1071b400b6dbba00b6dbba00b60bba00968bba00df
:1071c400b6dbba00960bba00b68bba00a1028800ef
:1071d4003001ba00b001ba00ffff3700811f780008
:1071e400821f7800831f7800841f7800851f780031
:1071f400e2532400030020000400200005002000c6
:107204003042780084826900e2c17a008100e9009a
:10721400fbff3a00030078000000000000000000bb
:1072240000000000cf0278004f027800cf01780000
:107234004f017800cf00780000000000000000003b
:047244000000060040
:020000040000fa
:020000040005f5
:045e0000f77f000028
:020000040000fa
:020000040005f5
:045e2000faffff0086
:020000040000fa
:020000040005f5
:045e2800ff7f0000f8
:020000040000fa
:020000040005f5
:045e3000e1ffff008f
:020000040000fa
:020000040005f5
:045e3800b3ffff00b5
:020000040000fa
:020000040005f5
:045e40009fffff00c1
:020000040000fa
:020000040005f5
:045e4800ffffff0059
:020000040000fa
:020000040005f5
:045e5000ddffff0073
:020000040000fa
:020000040005f5
:045e5800efffff0059
:00000001FF
